{
	"Ethereum Course/Data Structures/mapping.sol": {
		"ExampleMapping": {
			"abi": [
				{
					"inputs": [
						{
							"internalType": "uint256",
							"name": "",
							"type": "uint256"
						}
					],
					"name": "MyMapping",
					"outputs": [
						{
							"internalType": "bool",
							"name": "",
							"type": "bool"
						}
					],
					"stateMutability": "view",
					"type": "function"
				},
				{
					"inputs": [
						{
							"internalType": "address",
							"name": "",
							"type": "address"
						}
					],
					"name": "myAddressMapping",
					"outputs": [
						{
							"internalType": "bool",
							"name": "",
							"type": "bool"
						}
					],
					"stateMutability": "view",
					"type": "function"
				},
				{
					"inputs": [],
					"name": "setMyAddressToTrue",
					"outputs": [],
					"stateMutability": "nonpayable",
					"type": "function"
				},
				{
					"inputs": [
						{
							"internalType": "uint256",
							"name": "_key1",
							"type": "uint256"
						},
						{
							"internalType": "uint256",
							"name": "_key2",
							"type": "uint256"
						},
						{
							"internalType": "bool",
							"name": "_value",
							"type": "bool"
						}
					],
					"name": "setUintUintBoolMapping",
					"outputs": [],
					"stateMutability": "nonpayable",
					"type": "function"
				},
				{
					"inputs": [
						{
							"internalType": "uint256",
							"name": "_index",
							"type": "uint256"
						}
					],
					"name": "setValue",
					"outputs": [],
					"stateMutability": "nonpayable",
					"type": "function"
				},
				{
					"inputs": [
						{
							"internalType": "uint256",
							"name": "",
							"type": "uint256"
						},
						{
							"internalType": "uint256",
							"name": "",
							"type": "uint256"
						}
					],
					"name": "uintuintBoolMapping",
					"outputs": [
						{
							"internalType": "bool",
							"name": "",
							"type": "bool"
						}
					],
					"stateMutability": "view",
					"type": "function"
				}
			],
			"devdoc": {
				"kind": "dev",
				"methods": {},
				"version": 1
			},
			"evm": {
				"assembly": "    /* \"Ethereum Course/Data Structures/mapping.sol\":60:591  contract ExampleMapping{... */\n  mstore(0x40, 0x80)\n  callvalue\n  dup1\n  iszero\n  tag_1\n  jumpi\n  0x00\n  dup1\n  revert\ntag_1:\n  pop\n  dataSize(sub_0)\n  dup1\n  dataOffset(sub_0)\n  0x00\n  codecopy\n  0x00\n  return\nstop\n\nsub_0: assembly {\n        /* \"Ethereum Course/Data Structures/mapping.sol\":60:591  contract ExampleMapping{... */\n      mstore(0x40, 0x80)\n      callvalue\n      dup1\n      iszero\n      tag_1\n      jumpi\n      0x00\n      dup1\n      revert\n    tag_1:\n      pop\n      jumpi(tag_2, lt(calldatasize, 0x04))\n      shr(0xe0, calldataload(0x00))\n      dup1\n      0x26cce8e4\n      eq\n      tag_3\n      jumpi\n      dup1\n      0x3d7d5c61\n      eq\n      tag_4\n      jumpi\n      dup1\n      0x55241077\n      eq\n      tag_5\n      jumpi\n      dup1\n      0x634899ce\n      eq\n      tag_6\n      jumpi\n      dup1\n      0xb92ba3b8\n      eq\n      tag_7\n      jumpi\n      dup1\n      0xbc65030e\n      eq\n      tag_8\n      jumpi\n    tag_2:\n      0x00\n      dup1\n      revert\n        /* \"Ethereum Course/Data Structures/mapping.sol\":192:257  mapping(uint => mapping(uint => bool)) public uintuintBoolMapping */\n    tag_3:\n      tag_9\n      0x04\n      dup1\n      calldatasize\n      sub\n      dup2\n      add\n      swap1\n      tag_10\n      swap2\n      swap1\n      tag_11\n      jump\t// in\n    tag_10:\n      tag_12\n      jump\t// in\n    tag_9:\n      mload(0x40)\n      tag_13\n      swap2\n      swap1\n      tag_14\n      jump\t// in\n    tag_13:\n      mload(0x40)\n      dup1\n      swap2\n      sub\n      swap1\n      return\n        /* \"Ethereum Course/Data Structures/mapping.sol\":92:130  mapping(uint => bool) public MyMapping */\n    tag_4:\n      tag_15\n      0x04\n      dup1\n      calldatasize\n      sub\n      dup2\n      add\n      swap1\n      tag_16\n      swap2\n      swap1\n      tag_17\n      jump\t// in\n    tag_16:\n      tag_18\n      jump\t// in\n    tag_15:\n      mload(0x40)\n      tag_19\n      swap2\n      swap1\n      tag_14\n      jump\t// in\n    tag_19:\n      mload(0x40)\n      dup1\n      swap2\n      sub\n      swap1\n      return\n        /* \"Ethereum Course/Data Structures/mapping.sol\":266:346  function setValue(uint _index) public{... */\n    tag_5:\n      tag_20\n      0x04\n      dup1\n      calldatasize\n      sub\n      dup2\n      add\n      swap1\n      tag_21\n      swap2\n      swap1\n      tag_17\n      jump\t// in\n    tag_21:\n      tag_22\n      jump\t// in\n    tag_20:\n      stop\n        /* \"Ethereum Course/Data Structures/mapping.sol\":354:444  function setMyAddressToTrue() public{... */\n    tag_6:\n      tag_23\n      tag_24\n      jump\t// in\n    tag_23:\n      stop\n        /* \"Ethereum Course/Data Structures/mapping.sol\":137:185  mapping(address => bool) public myAddressMapping */\n    tag_7:\n      tag_25\n      0x04\n      dup1\n      calldatasize\n      sub\n      dup2\n      add\n      swap1\n      tag_26\n      swap2\n      swap1\n      tag_27\n      jump\t// in\n    tag_26:\n      tag_28\n      jump\t// in\n    tag_25:\n      mload(0x40)\n      tag_29\n      swap2\n      swap1\n      tag_14\n      jump\t// in\n    tag_29:\n      mload(0x40)\n      dup1\n      swap2\n      sub\n      swap1\n      return\n        /* \"Ethereum Course/Data Structures/mapping.sol\":452:588  function setUintUintBoolMapping(uint _key1, uint _key2, bool _value) public{... */\n    tag_8:\n      tag_30\n      0x04\n      dup1\n      calldatasize\n      sub\n      dup2\n      add\n      swap1\n      tag_31\n      swap2\n      swap1\n      tag_32\n      jump\t// in\n    tag_31:\n      tag_33\n      jump\t// in\n    tag_30:\n      stop\n        /* \"Ethereum Course/Data Structures/mapping.sol\":192:257  mapping(uint => mapping(uint => bool)) public uintuintBoolMapping */\n    tag_12:\n      mstore(0x20, 0x02)\n      dup2\n      0x00\n      mstore\n      mstore(0x20, keccak256(0x00, 0x40))\n      dup1\n      0x00\n      mstore\n      keccak256(0x00, 0x40)\n      0x00\n      swap2\n      pop\n      swap2\n      pop\n      swap1\n      sload\n      swap1\n      0x0100\n      exp\n      swap1\n      div\n      0xff\n      and\n      dup2\n      jump\t// out\n        /* \"Ethereum Course/Data Structures/mapping.sol\":92:130  mapping(uint => bool) public MyMapping */\n    tag_18:\n      mstore(0x20, 0x00)\n      dup1\n      0x00\n      mstore\n      keccak256(0x00, 0x40)\n      0x00\n      swap2\n      pop\n      sload\n      swap1\n      0x0100\n      exp\n      swap1\n      div\n      0xff\n      and\n      dup2\n      jump\t// out\n        /* \"Ethereum Course/Data Structures/mapping.sol\":266:346  function setValue(uint _index) public{... */\n    tag_22:\n        /* \"Ethereum Course/Data Structures/mapping.sol\":334:338  true */\n      0x01\n        /* \"Ethereum Course/Data Structures/mapping.sol\":314:323  MyMapping */\n      0x00\n        /* \"Ethereum Course/Data Structures/mapping.sol\":314:331  MyMapping[_index] */\n      dup1\n        /* \"Ethereum Course/Data Structures/mapping.sol\":324:330  _index */\n      dup4\n        /* \"Ethereum Course/Data Structures/mapping.sol\":314:331  MyMapping[_index] */\n      dup2\n      mstore\n      0x20\n      add\n      swap1\n      dup2\n      mstore\n      0x20\n      add\n      0x00\n      keccak256\n      0x00\n        /* \"Ethereum Course/Data Structures/mapping.sol\":314:338  MyMapping[_index] = true */\n      0x0100\n      exp\n      dup2\n      sload\n      dup2\n      0xff\n      mul\n      not\n      and\n      swap1\n      dup4\n      iszero\n      iszero\n      mul\n      or\n      swap1\n      sstore\n      pop\n        /* \"Ethereum Course/Data Structures/mapping.sol\":266:346  function setValue(uint _index) public{... */\n      pop\n      jump\t// out\n        /* \"Ethereum Course/Data Structures/mapping.sol\":354:444  function setMyAddressToTrue() public{... */\n    tag_24:\n        /* \"Ethereum Course/Data Structures/mapping.sol\":432:436  true */\n      0x01\n        /* \"Ethereum Course/Data Structures/mapping.sol\":401:417  myAddressMapping */\n      dup1\n        /* \"Ethereum Course/Data Structures/mapping.sol\":401:429  myAddressMapping[msg.sender] */\n      0x00\n        /* \"Ethereum Course/Data Structures/mapping.sol\":418:428  msg.sender */\n      caller\n        /* \"Ethereum Course/Data Structures/mapping.sol\":401:429  myAddressMapping[msg.sender] */\n      0xffffffffffffffffffffffffffffffffffffffff\n      and\n      0xffffffffffffffffffffffffffffffffffffffff\n      and\n      dup2\n      mstore\n      0x20\n      add\n      swap1\n      dup2\n      mstore\n      0x20\n      add\n      0x00\n      keccak256\n      0x00\n        /* \"Ethereum Course/Data Structures/mapping.sol\":401:436  myAddressMapping[msg.sender] = true */\n      0x0100\n      exp\n      dup2\n      sload\n      dup2\n      0xff\n      mul\n      not\n      and\n      swap1\n      dup4\n      iszero\n      iszero\n      mul\n      or\n      swap1\n      sstore\n      pop\n        /* \"Ethereum Course/Data Structures/mapping.sol\":354:444  function setMyAddressToTrue() public{... */\n      jump\t// out\n        /* \"Ethereum Course/Data Structures/mapping.sol\":137:185  mapping(address => bool) public myAddressMapping */\n    tag_28:\n      mstore(0x20, 0x01)\n      dup1\n      0x00\n      mstore\n      keccak256(0x00, 0x40)\n      0x00\n      swap2\n      pop\n      sload\n      swap1\n      0x0100\n      exp\n      swap1\n      div\n      0xff\n      and\n      dup2\n      jump\t// out\n        /* \"Ethereum Course/Data Structures/mapping.sol\":452:588  function setUintUintBoolMapping(uint _key1, uint _key2, bool _value) public{... */\n    tag_33:\n        /* \"Ethereum Course/Data Structures/mapping.sol\":574:580  _value */\n      dup1\n        /* \"Ethereum Course/Data Structures/mapping.sol\":538:557  uintuintBoolMapping */\n      0x02\n        /* \"Ethereum Course/Data Structures/mapping.sol\":538:564  uintuintBoolMapping[_key1] */\n      0x00\n        /* \"Ethereum Course/Data Structures/mapping.sol\":558:563  _key1 */\n      dup6\n        /* \"Ethereum Course/Data Structures/mapping.sol\":538:564  uintuintBoolMapping[_key1] */\n      dup2\n      mstore\n      0x20\n      add\n      swap1\n      dup2\n      mstore\n      0x20\n      add\n      0x00\n      keccak256\n        /* \"Ethereum Course/Data Structures/mapping.sol\":538:571  uintuintBoolMapping[_key1][_key2] */\n      0x00\n        /* \"Ethereum Course/Data Structures/mapping.sol\":565:570  _key2 */\n      dup5\n        /* \"Ethereum Course/Data Structures/mapping.sol\":538:571  uintuintBoolMapping[_key1][_key2] */\n      dup2\n      mstore\n      0x20\n      add\n      swap1\n      dup2\n      mstore\n      0x20\n      add\n      0x00\n      keccak256\n      0x00\n        /* \"Ethereum Course/Data Structures/mapping.sol\":538:580  uintuintBoolMapping[_key1][_key2] = _value */\n      0x0100\n      exp\n      dup2\n      sload\n      dup2\n      0xff\n      mul\n      not\n      and\n      swap1\n      dup4\n      iszero\n      iszero\n      mul\n      or\n      swap1\n      sstore\n      pop\n        /* \"Ethereum Course/Data Structures/mapping.sol\":452:588  function setUintUintBoolMapping(uint _key1, uint _key2, bool _value) public{... */\n      pop\n      pop\n      pop\n      jump\t// out\n        /* \"#utility.yul\":88:205   */\n    tag_38:\n        /* \"#utility.yul\":197:198   */\n      0x00\n        /* \"#utility.yul\":194:195   */\n      dup1\n        /* \"#utility.yul\":187:199   */\n      revert\n        /* \"#utility.yul\":334:411   */\n    tag_40:\n        /* \"#utility.yul\":371:378   */\n      0x00\n        /* \"#utility.yul\":400:405   */\n      dup2\n        /* \"#utility.yul\":389:405   */\n      swap1\n      pop\n        /* \"#utility.yul\":334:411   */\n      swap2\n      swap1\n      pop\n      jump\t// out\n        /* \"#utility.yul\":417:539   */\n    tag_41:\n        /* \"#utility.yul\":490:514   */\n      tag_57\n        /* \"#utility.yul\":508:513   */\n      dup2\n        /* \"#utility.yul\":490:514   */\n      tag_40\n      jump\t// in\n    tag_57:\n        /* \"#utility.yul\":483:488   */\n      dup2\n        /* \"#utility.yul\":480:515   */\n      eq\n        /* \"#utility.yul\":470:533   */\n      tag_58\n      jumpi\n        /* \"#utility.yul\":529:530   */\n      0x00\n        /* \"#utility.yul\":526:527   */\n      dup1\n        /* \"#utility.yul\":519:531   */\n      revert\n        /* \"#utility.yul\":470:533   */\n    tag_58:\n        /* \"#utility.yul\":417:539   */\n      pop\n      jump\t// out\n        /* \"#utility.yul\":545:684   */\n    tag_42:\n        /* \"#utility.yul\":591:596   */\n      0x00\n        /* \"#utility.yul\":629:635   */\n      dup2\n        /* \"#utility.yul\":616:636   */\n      calldataload\n        /* \"#utility.yul\":607:636   */\n      swap1\n      pop\n        /* \"#utility.yul\":645:678   */\n      tag_60\n        /* \"#utility.yul\":672:677   */\n      dup2\n        /* \"#utility.yul\":645:678   */\n      tag_41\n      jump\t// in\n    tag_60:\n        /* \"#utility.yul\":545:684   */\n      swap3\n      swap2\n      pop\n      pop\n      jump\t// out\n        /* \"#utility.yul\":690:1164   */\n    tag_11:\n        /* \"#utility.yul\":758:764   */\n      0x00\n        /* \"#utility.yul\":766:772   */\n      dup1\n        /* \"#utility.yul\":815:817   */\n      0x40\n        /* \"#utility.yul\":803:812   */\n      dup4\n        /* \"#utility.yul\":794:801   */\n      dup6\n        /* \"#utility.yul\":790:813   */\n      sub\n        /* \"#utility.yul\":786:818   */\n      slt\n        /* \"#utility.yul\":783:902   */\n      iszero\n      tag_62\n      jumpi\n        /* \"#utility.yul\":821:900   */\n      tag_63\n      tag_38\n      jump\t// in\n    tag_63:\n        /* \"#utility.yul\":783:902   */\n    tag_62:\n        /* \"#utility.yul\":941:942   */\n      0x00\n        /* \"#utility.yul\":966:1019   */\n      tag_64\n        /* \"#utility.yul\":1011:1018   */\n      dup6\n        /* \"#utility.yul\":1002:1008   */\n      dup3\n        /* \"#utility.yul\":991:1000   */\n      dup7\n        /* \"#utility.yul\":987:1009   */\n      add\n        /* \"#utility.yul\":966:1019   */\n      tag_42\n      jump\t// in\n    tag_64:\n        /* \"#utility.yul\":956:1019   */\n      swap3\n      pop\n        /* \"#utility.yul\":912:1029   */\n      pop\n        /* \"#utility.yul\":1068:1070   */\n      0x20\n        /* \"#utility.yul\":1094:1147   */\n      tag_65\n        /* \"#utility.yul\":1139:1146   */\n      dup6\n        /* \"#utility.yul\":1130:1136   */\n      dup3\n        /* \"#utility.yul\":1119:1128   */\n      dup7\n        /* \"#utility.yul\":1115:1137   */\n      add\n        /* \"#utility.yul\":1094:1147   */\n      tag_42\n      jump\t// in\n    tag_65:\n        /* \"#utility.yul\":1084:1147   */\n      swap2\n      pop\n        /* \"#utility.yul\":1039:1157   */\n      pop\n        /* \"#utility.yul\":690:1164   */\n      swap3\n      pop\n      swap3\n      swap1\n      pop\n      jump\t// out\n        /* \"#utility.yul\":1170:1260   */\n    tag_43:\n        /* \"#utility.yul\":1204:1211   */\n      0x00\n        /* \"#utility.yul\":1247:1252   */\n      dup2\n        /* \"#utility.yul\":1240:1253   */\n      iszero\n        /* \"#utility.yul\":1233:1254   */\n      iszero\n        /* \"#utility.yul\":1222:1254   */\n      swap1\n      pop\n        /* \"#utility.yul\":1170:1260   */\n      swap2\n      swap1\n      pop\n      jump\t// out\n        /* \"#utility.yul\":1266:1375   */\n    tag_44:\n        /* \"#utility.yul\":1347:1368   */\n      tag_68\n        /* \"#utility.yul\":1362:1367   */\n      dup2\n        /* \"#utility.yul\":1347:1368   */\n      tag_43\n      jump\t// in\n    tag_68:\n        /* \"#utility.yul\":1342:1345   */\n      dup3\n        /* \"#utility.yul\":1335:1369   */\n      mstore\n        /* \"#utility.yul\":1266:1375   */\n      pop\n      pop\n      jump\t// out\n        /* \"#utility.yul\":1381:1591   */\n    tag_14:\n        /* \"#utility.yul\":1468:1472   */\n      0x00\n        /* \"#utility.yul\":1506:1508   */\n      0x20\n        /* \"#utility.yul\":1495:1504   */\n      dup3\n        /* \"#utility.yul\":1491:1509   */\n      add\n        /* \"#utility.yul\":1483:1509   */\n      swap1\n      pop\n        /* \"#utility.yul\":1519:1584   */\n      tag_70\n        /* \"#utility.yul\":1581:1582   */\n      0x00\n        /* \"#utility.yul\":1570:1579   */\n      dup4\n        /* \"#utility.yul\":1566:1583   */\n      add\n        /* \"#utility.yul\":1557:1563   */\n      dup5\n        /* \"#utility.yul\":1519:1584   */\n      tag_44\n      jump\t// in\n    tag_70:\n        /* \"#utility.yul\":1381:1591   */\n      swap3\n      swap2\n      pop\n      pop\n      jump\t// out\n        /* \"#utility.yul\":1597:1926   */\n    tag_17:\n        /* \"#utility.yul\":1656:1662   */\n      0x00\n        /* \"#utility.yul\":1705:1707   */\n      0x20\n        /* \"#utility.yul\":1693:1702   */\n      dup3\n        /* \"#utility.yul\":1684:1691   */\n      dup5\n        /* \"#utility.yul\":1680:1703   */\n      sub\n        /* \"#utility.yul\":1676:1708   */\n      slt\n        /* \"#utility.yul\":1673:1792   */\n      iszero\n      tag_72\n      jumpi\n        /* \"#utility.yul\":1711:1790   */\n      tag_73\n      tag_38\n      jump\t// in\n    tag_73:\n        /* \"#utility.yul\":1673:1792   */\n    tag_72:\n        /* \"#utility.yul\":1831:1832   */\n      0x00\n        /* \"#utility.yul\":1856:1909   */\n      tag_74\n        /* \"#utility.yul\":1901:1908   */\n      dup5\n        /* \"#utility.yul\":1892:1898   */\n      dup3\n        /* \"#utility.yul\":1881:1890   */\n      dup6\n        /* \"#utility.yul\":1877:1899   */\n      add\n        /* \"#utility.yul\":1856:1909   */\n      tag_42\n      jump\t// in\n    tag_74:\n        /* \"#utility.yul\":1846:1909   */\n      swap2\n      pop\n        /* \"#utility.yul\":1802:1919   */\n      pop\n        /* \"#utility.yul\":1597:1926   */\n      swap3\n      swap2\n      pop\n      pop\n      jump\t// out\n        /* \"#utility.yul\":1932:2058   */\n    tag_45:\n        /* \"#utility.yul\":1969:1976   */\n      0x00\n        /* \"#utility.yul\":2009:2051   */\n      0xffffffffffffffffffffffffffffffffffffffff\n        /* \"#utility.yul\":2002:2007   */\n      dup3\n        /* \"#utility.yul\":1998:2052   */\n      and\n        /* \"#utility.yul\":1987:2052   */\n      swap1\n      pop\n        /* \"#utility.yul\":1932:2058   */\n      swap2\n      swap1\n      pop\n      jump\t// out\n        /* \"#utility.yul\":2064:2160   */\n    tag_46:\n        /* \"#utility.yul\":2101:2108   */\n      0x00\n        /* \"#utility.yul\":2130:2154   */\n      tag_77\n        /* \"#utility.yul\":2148:2153   */\n      dup3\n        /* \"#utility.yul\":2130:2154   */\n      tag_45\n      jump\t// in\n    tag_77:\n        /* \"#utility.yul\":2119:2154   */\n      swap1\n      pop\n        /* \"#utility.yul\":2064:2160   */\n      swap2\n      swap1\n      pop\n      jump\t// out\n        /* \"#utility.yul\":2166:2288   */\n    tag_47:\n        /* \"#utility.yul\":2239:2263   */\n      tag_79\n        /* \"#utility.yul\":2257:2262   */\n      dup2\n        /* \"#utility.yul\":2239:2263   */\n      tag_46\n      jump\t// in\n    tag_79:\n        /* \"#utility.yul\":2232:2237   */\n      dup2\n        /* \"#utility.yul\":2229:2264   */\n      eq\n        /* \"#utility.yul\":2219:2282   */\n      tag_80\n      jumpi\n        /* \"#utility.yul\":2278:2279   */\n      0x00\n        /* \"#utility.yul\":2275:2276   */\n      dup1\n        /* \"#utility.yul\":2268:2280   */\n      revert\n        /* \"#utility.yul\":2219:2282   */\n    tag_80:\n        /* \"#utility.yul\":2166:2288   */\n      pop\n      jump\t// out\n        /* \"#utility.yul\":2294:2433   */\n    tag_48:\n        /* \"#utility.yul\":2340:2345   */\n      0x00\n        /* \"#utility.yul\":2378:2384   */\n      dup2\n        /* \"#utility.yul\":2365:2385   */\n      calldataload\n        /* \"#utility.yul\":2356:2385   */\n      swap1\n      pop\n        /* \"#utility.yul\":2394:2427   */\n      tag_82\n        /* \"#utility.yul\":2421:2426   */\n      dup2\n        /* \"#utility.yul\":2394:2427   */\n      tag_47\n      jump\t// in\n    tag_82:\n        /* \"#utility.yul\":2294:2433   */\n      swap3\n      swap2\n      pop\n      pop\n      jump\t// out\n        /* \"#utility.yul\":2439:2768   */\n    tag_27:\n        /* \"#utility.yul\":2498:2504   */\n      0x00\n        /* \"#utility.yul\":2547:2549   */\n      0x20\n        /* \"#utility.yul\":2535:2544   */\n      dup3\n        /* \"#utility.yul\":2526:2533   */\n      dup5\n        /* \"#utility.yul\":2522:2545   */\n      sub\n        /* \"#utility.yul\":2518:2550   */\n      slt\n        /* \"#utility.yul\":2515:2634   */\n      iszero\n      tag_84\n      jumpi\n        /* \"#utility.yul\":2553:2632   */\n      tag_85\n      tag_38\n      jump\t// in\n    tag_85:\n        /* \"#utility.yul\":2515:2634   */\n    tag_84:\n        /* \"#utility.yul\":2673:2674   */\n      0x00\n        /* \"#utility.yul\":2698:2751   */\n      tag_86\n        /* \"#utility.yul\":2743:2750   */\n      dup5\n        /* \"#utility.yul\":2734:2740   */\n      dup3\n        /* \"#utility.yul\":2723:2732   */\n      dup6\n        /* \"#utility.yul\":2719:2741   */\n      add\n        /* \"#utility.yul\":2698:2751   */\n      tag_48\n      jump\t// in\n    tag_86:\n        /* \"#utility.yul\":2688:2751   */\n      swap2\n      pop\n        /* \"#utility.yul\":2644:2761   */\n      pop\n        /* \"#utility.yul\":2439:2768   */\n      swap3\n      swap2\n      pop\n      pop\n      jump\t// out\n        /* \"#utility.yul\":2774:2890   */\n    tag_49:\n        /* \"#utility.yul\":2844:2865   */\n      tag_88\n        /* \"#utility.yul\":2859:2864   */\n      dup2\n        /* \"#utility.yul\":2844:2865   */\n      tag_43\n      jump\t// in\n    tag_88:\n        /* \"#utility.yul\":2837:2842   */\n      dup2\n        /* \"#utility.yul\":2834:2866   */\n      eq\n        /* \"#utility.yul\":2824:2884   */\n      tag_89\n      jumpi\n        /* \"#utility.yul\":2880:2881   */\n      0x00\n        /* \"#utility.yul\":2877:2878   */\n      dup1\n        /* \"#utility.yul\":2870:2882   */\n      revert\n        /* \"#utility.yul\":2824:2884   */\n    tag_89:\n        /* \"#utility.yul\":2774:2890   */\n      pop\n      jump\t// out\n        /* \"#utility.yul\":2896:3029   */\n    tag_50:\n        /* \"#utility.yul\":2939:2944   */\n      0x00\n        /* \"#utility.yul\":2977:2983   */\n      dup2\n        /* \"#utility.yul\":2964:2984   */\n      calldataload\n        /* \"#utility.yul\":2955:2984   */\n      swap1\n      pop\n        /* \"#utility.yul\":2993:3023   */\n      tag_91\n        /* \"#utility.yul\":3017:3022   */\n      dup2\n        /* \"#utility.yul\":2993:3023   */\n      tag_49\n      jump\t// in\n    tag_91:\n        /* \"#utility.yul\":2896:3029   */\n      swap3\n      swap2\n      pop\n      pop\n      jump\t// out\n        /* \"#utility.yul\":3035:3648   */\n    tag_32:\n        /* \"#utility.yul\":3109:3115   */\n      0x00\n        /* \"#utility.yul\":3117:3123   */\n      dup1\n        /* \"#utility.yul\":3125:3131   */\n      0x00\n        /* \"#utility.yul\":3174:3176   */\n      0x60\n        /* \"#utility.yul\":3162:3171   */\n      dup5\n        /* \"#utility.yul\":3153:3160   */\n      dup7\n        /* \"#utility.yul\":3149:3172   */\n      sub\n        /* \"#utility.yul\":3145:3177   */\n      slt\n        /* \"#utility.yul\":3142:3261   */\n      iszero\n      tag_93\n      jumpi\n        /* \"#utility.yul\":3180:3259   */\n      tag_94\n      tag_38\n      jump\t// in\n    tag_94:\n        /* \"#utility.yul\":3142:3261   */\n    tag_93:\n        /* \"#utility.yul\":3300:3301   */\n      0x00\n        /* \"#utility.yul\":3325:3378   */\n      tag_95\n        /* \"#utility.yul\":3370:3377   */\n      dup7\n        /* \"#utility.yul\":3361:3367   */\n      dup3\n        /* \"#utility.yul\":3350:3359   */\n      dup8\n        /* \"#utility.yul\":3346:3368   */\n      add\n        /* \"#utility.yul\":3325:3378   */\n      tag_42\n      jump\t// in\n    tag_95:\n        /* \"#utility.yul\":3315:3378   */\n      swap4\n      pop\n        /* \"#utility.yul\":3271:3388   */\n      pop\n        /* \"#utility.yul\":3427:3429   */\n      0x20\n        /* \"#utility.yul\":3453:3506   */\n      tag_96\n        /* \"#utility.yul\":3498:3505   */\n      dup7\n        /* \"#utility.yul\":3489:3495   */\n      dup3\n        /* \"#utility.yul\":3478:3487   */\n      dup8\n        /* \"#utility.yul\":3474:3496   */\n      add\n        /* \"#utility.yul\":3453:3506   */\n      tag_42\n      jump\t// in\n    tag_96:\n        /* \"#utility.yul\":3443:3506   */\n      swap3\n      pop\n        /* \"#utility.yul\":3398:3516   */\n      pop\n        /* \"#utility.yul\":3555:3557   */\n      0x40\n        /* \"#utility.yul\":3581:3631   */\n      tag_97\n        /* \"#utility.yul\":3623:3630   */\n      dup7\n        /* \"#utility.yul\":3614:3620   */\n      dup3\n        /* \"#utility.yul\":3603:3612   */\n      dup8\n        /* \"#utility.yul\":3599:3621   */\n      add\n        /* \"#utility.yul\":3581:3631   */\n      tag_50\n      jump\t// in\n    tag_97:\n        /* \"#utility.yul\":3571:3631   */\n      swap2\n      pop\n        /* \"#utility.yul\":3526:3641   */\n      pop\n        /* \"#utility.yul\":3035:3648   */\n      swap3\n      pop\n      swap3\n      pop\n      swap3\n      jump\t// out\n\n    auxdata: 0xa26469706673582212200f75fe4084e639bdde251ffb28d87bc1d4ce2c2daf42ee7c83d6a002b2e13a7764736f6c634300080f0033\n}\n",
				"bytecode": {
					"linkReferences": {},
					"object": "608060405234801561001057600080fd5b5061048e806100206000396000f3fe608060405234801561001057600080fd5b50600436106100625760003560e01c806326cce8e4146100675780633d7d5c611461009757806355241077146100c7578063634899ce146100e3578063b92ba3b8146100ed578063bc65030e1461011d575b600080fd5b610081600480360381019061007c91906102ab565b610139565b60405161008e9190610306565b60405180910390f35b6100b160048036038101906100ac9190610321565b610168565b6040516100be9190610306565b60405180910390f35b6100e160048036038101906100dc9190610321565b610188565b005b6100eb6101b6565b005b610107600480360381019061010291906103ac565b61020f565b6040516101149190610306565b60405180910390f35b61013760048036038101906101329190610405565b61022f565b005b60026020528160005260406000206020528060005260406000206000915091509054906101000a900460ff1681565b60006020528060005260406000206000915054906101000a900460ff1681565b600160008083815260200190815260200160002060006101000a81548160ff02191690831515021790555050565b60018060003373ffffffffffffffffffffffffffffffffffffffff1673ffffffffffffffffffffffffffffffffffffffff16815260200190815260200160002060006101000a81548160ff021916908315150217905550565b60016020528060005260406000206000915054906101000a900460ff1681565b8060026000858152602001908152602001600020600084815260200190815260200160002060006101000a81548160ff021916908315150217905550505050565b600080fd5b6000819050919050565b61028881610275565b811461029357600080fd5b50565b6000813590506102a58161027f565b92915050565b600080604083850312156102c2576102c1610270565b5b60006102d085828601610296565b92505060206102e185828601610296565b9150509250929050565b60008115159050919050565b610300816102eb565b82525050565b600060208201905061031b60008301846102f7565b92915050565b60006020828403121561033757610336610270565b5b600061034584828501610296565b91505092915050565b600073ffffffffffffffffffffffffffffffffffffffff82169050919050565b60006103798261034e565b9050919050565b6103898161036e565b811461039457600080fd5b50565b6000813590506103a681610380565b92915050565b6000602082840312156103c2576103c1610270565b5b60006103d084828501610397565b91505092915050565b6103e2816102eb565b81146103ed57600080fd5b50565b6000813590506103ff816103d9565b92915050565b60008060006060848603121561041e5761041d610270565b5b600061042c86828701610296565b935050602061043d86828701610296565b925050604061044e868287016103f0565b915050925092509256fea26469706673582212200f75fe4084e639bdde251ffb28d87bc1d4ce2c2daf42ee7c83d6a002b2e13a7764736f6c634300080f0033",
					"opcodes": "PUSH1 0x80 PUSH1 0x40 MSTORE CALLVALUE DUP1 ISZERO PUSH2 0x10 JUMPI PUSH1 0x0 DUP1 REVERT JUMPDEST POP PUSH2 0x48E DUP1 PUSH2 0x20 PUSH1 0x0 CODECOPY PUSH1 0x0 RETURN INVALID PUSH1 0x80 PUSH1 0x40 MSTORE CALLVALUE DUP1 ISZERO PUSH2 0x10 JUMPI PUSH1 0x0 DUP1 REVERT JUMPDEST POP PUSH1 0x4 CALLDATASIZE LT PUSH2 0x62 JUMPI PUSH1 0x0 CALLDATALOAD PUSH1 0xE0 SHR DUP1 PUSH4 0x26CCE8E4 EQ PUSH2 0x67 JUMPI DUP1 PUSH4 0x3D7D5C61 EQ PUSH2 0x97 JUMPI DUP1 PUSH4 0x55241077 EQ PUSH2 0xC7 JUMPI DUP1 PUSH4 0x634899CE EQ PUSH2 0xE3 JUMPI DUP1 PUSH4 0xB92BA3B8 EQ PUSH2 0xED JUMPI DUP1 PUSH4 0xBC65030E EQ PUSH2 0x11D JUMPI JUMPDEST PUSH1 0x0 DUP1 REVERT JUMPDEST PUSH2 0x81 PUSH1 0x4 DUP1 CALLDATASIZE SUB DUP2 ADD SWAP1 PUSH2 0x7C SWAP2 SWAP1 PUSH2 0x2AB JUMP JUMPDEST PUSH2 0x139 JUMP JUMPDEST PUSH1 0x40 MLOAD PUSH2 0x8E SWAP2 SWAP1 PUSH2 0x306 JUMP JUMPDEST PUSH1 0x40 MLOAD DUP1 SWAP2 SUB SWAP1 RETURN JUMPDEST PUSH2 0xB1 PUSH1 0x4 DUP1 CALLDATASIZE SUB DUP2 ADD SWAP1 PUSH2 0xAC SWAP2 SWAP1 PUSH2 0x321 JUMP JUMPDEST PUSH2 0x168 JUMP JUMPDEST PUSH1 0x40 MLOAD PUSH2 0xBE SWAP2 SWAP1 PUSH2 0x306 JUMP JUMPDEST PUSH1 0x40 MLOAD DUP1 SWAP2 SUB SWAP1 RETURN JUMPDEST PUSH2 0xE1 PUSH1 0x4 DUP1 CALLDATASIZE SUB DUP2 ADD SWAP1 PUSH2 0xDC SWAP2 SWAP1 PUSH2 0x321 JUMP JUMPDEST PUSH2 0x188 JUMP JUMPDEST STOP JUMPDEST PUSH2 0xEB PUSH2 0x1B6 JUMP JUMPDEST STOP JUMPDEST PUSH2 0x107 PUSH1 0x4 DUP1 CALLDATASIZE SUB DUP2 ADD SWAP1 PUSH2 0x102 SWAP2 SWAP1 PUSH2 0x3AC JUMP JUMPDEST PUSH2 0x20F JUMP JUMPDEST PUSH1 0x40 MLOAD PUSH2 0x114 SWAP2 SWAP1 PUSH2 0x306 JUMP JUMPDEST PUSH1 0x40 MLOAD DUP1 SWAP2 SUB SWAP1 RETURN JUMPDEST PUSH2 0x137 PUSH1 0x4 DUP1 CALLDATASIZE SUB DUP2 ADD SWAP1 PUSH2 0x132 SWAP2 SWAP1 PUSH2 0x405 JUMP JUMPDEST PUSH2 0x22F JUMP JUMPDEST STOP JUMPDEST PUSH1 0x2 PUSH1 0x20 MSTORE DUP2 PUSH1 0x0 MSTORE PUSH1 0x40 PUSH1 0x0 KECCAK256 PUSH1 0x20 MSTORE DUP1 PUSH1 0x0 MSTORE PUSH1 0x40 PUSH1 0x0 KECCAK256 PUSH1 0x0 SWAP2 POP SWAP2 POP SWAP1 SLOAD SWAP1 PUSH2 0x100 EXP SWAP1 DIV PUSH1 0xFF AND DUP2 JUMP JUMPDEST PUSH1 0x0 PUSH1 0x20 MSTORE DUP1 PUSH1 0x0 MSTORE PUSH1 0x40 PUSH1 0x0 KECCAK256 PUSH1 0x0 SWAP2 POP SLOAD SWAP1 PUSH2 0x100 EXP SWAP1 DIV PUSH1 0xFF AND DUP2 JUMP JUMPDEST PUSH1 0x1 PUSH1 0x0 DUP1 DUP4 DUP2 MSTORE PUSH1 0x20 ADD SWAP1 DUP2 MSTORE PUSH1 0x20 ADD PUSH1 0x0 KECCAK256 PUSH1 0x0 PUSH2 0x100 EXP DUP2 SLOAD DUP2 PUSH1 0xFF MUL NOT AND SWAP1 DUP4 ISZERO ISZERO MUL OR SWAP1 SSTORE POP POP JUMP JUMPDEST PUSH1 0x1 DUP1 PUSH1 0x0 CALLER PUSH20 0xFFFFFFFFFFFFFFFFFFFFFFFFFFFFFFFFFFFFFFFF AND PUSH20 0xFFFFFFFFFFFFFFFFFFFFFFFFFFFFFFFFFFFFFFFF AND DUP2 MSTORE PUSH1 0x20 ADD SWAP1 DUP2 MSTORE PUSH1 0x20 ADD PUSH1 0x0 KECCAK256 PUSH1 0x0 PUSH2 0x100 EXP DUP2 SLOAD DUP2 PUSH1 0xFF MUL NOT AND SWAP1 DUP4 ISZERO ISZERO MUL OR SWAP1 SSTORE POP JUMP JUMPDEST PUSH1 0x1 PUSH1 0x20 MSTORE DUP1 PUSH1 0x0 MSTORE PUSH1 0x40 PUSH1 0x0 KECCAK256 PUSH1 0x0 SWAP2 POP SLOAD SWAP1 PUSH2 0x100 EXP SWAP1 DIV PUSH1 0xFF AND DUP2 JUMP JUMPDEST DUP1 PUSH1 0x2 PUSH1 0x0 DUP6 DUP2 MSTORE PUSH1 0x20 ADD SWAP1 DUP2 MSTORE PUSH1 0x20 ADD PUSH1 0x0 KECCAK256 PUSH1 0x0 DUP5 DUP2 MSTORE PUSH1 0x20 ADD SWAP1 DUP2 MSTORE PUSH1 0x20 ADD PUSH1 0x0 KECCAK256 PUSH1 0x0 PUSH2 0x100 EXP DUP2 SLOAD DUP2 PUSH1 0xFF MUL NOT AND SWAP1 DUP4 ISZERO ISZERO MUL OR SWAP1 SSTORE POP POP POP POP JUMP JUMPDEST PUSH1 0x0 DUP1 REVERT JUMPDEST PUSH1 0x0 DUP2 SWAP1 POP SWAP2 SWAP1 POP JUMP JUMPDEST PUSH2 0x288 DUP2 PUSH2 0x275 JUMP JUMPDEST DUP2 EQ PUSH2 0x293 JUMPI PUSH1 0x0 DUP1 REVERT JUMPDEST POP JUMP JUMPDEST PUSH1 0x0 DUP2 CALLDATALOAD SWAP1 POP PUSH2 0x2A5 DUP2 PUSH2 0x27F JUMP JUMPDEST SWAP3 SWAP2 POP POP JUMP JUMPDEST PUSH1 0x0 DUP1 PUSH1 0x40 DUP4 DUP6 SUB SLT ISZERO PUSH2 0x2C2 JUMPI PUSH2 0x2C1 PUSH2 0x270 JUMP JUMPDEST JUMPDEST PUSH1 0x0 PUSH2 0x2D0 DUP6 DUP3 DUP7 ADD PUSH2 0x296 JUMP JUMPDEST SWAP3 POP POP PUSH1 0x20 PUSH2 0x2E1 DUP6 DUP3 DUP7 ADD PUSH2 0x296 JUMP JUMPDEST SWAP2 POP POP SWAP3 POP SWAP3 SWAP1 POP JUMP JUMPDEST PUSH1 0x0 DUP2 ISZERO ISZERO SWAP1 POP SWAP2 SWAP1 POP JUMP JUMPDEST PUSH2 0x300 DUP2 PUSH2 0x2EB JUMP JUMPDEST DUP3 MSTORE POP POP JUMP JUMPDEST PUSH1 0x0 PUSH1 0x20 DUP3 ADD SWAP1 POP PUSH2 0x31B PUSH1 0x0 DUP4 ADD DUP5 PUSH2 0x2F7 JUMP JUMPDEST SWAP3 SWAP2 POP POP JUMP JUMPDEST PUSH1 0x0 PUSH1 0x20 DUP3 DUP5 SUB SLT ISZERO PUSH2 0x337 JUMPI PUSH2 0x336 PUSH2 0x270 JUMP JUMPDEST JUMPDEST PUSH1 0x0 PUSH2 0x345 DUP5 DUP3 DUP6 ADD PUSH2 0x296 JUMP JUMPDEST SWAP2 POP POP SWAP3 SWAP2 POP POP JUMP JUMPDEST PUSH1 0x0 PUSH20 0xFFFFFFFFFFFFFFFFFFFFFFFFFFFFFFFFFFFFFFFF DUP3 AND SWAP1 POP SWAP2 SWAP1 POP JUMP JUMPDEST PUSH1 0x0 PUSH2 0x379 DUP3 PUSH2 0x34E JUMP JUMPDEST SWAP1 POP SWAP2 SWAP1 POP JUMP JUMPDEST PUSH2 0x389 DUP2 PUSH2 0x36E JUMP JUMPDEST DUP2 EQ PUSH2 0x394 JUMPI PUSH1 0x0 DUP1 REVERT JUMPDEST POP JUMP JUMPDEST PUSH1 0x0 DUP2 CALLDATALOAD SWAP1 POP PUSH2 0x3A6 DUP2 PUSH2 0x380 JUMP JUMPDEST SWAP3 SWAP2 POP POP JUMP JUMPDEST PUSH1 0x0 PUSH1 0x20 DUP3 DUP5 SUB SLT ISZERO PUSH2 0x3C2 JUMPI PUSH2 0x3C1 PUSH2 0x270 JUMP JUMPDEST JUMPDEST PUSH1 0x0 PUSH2 0x3D0 DUP5 DUP3 DUP6 ADD PUSH2 0x397 JUMP JUMPDEST SWAP2 POP POP SWAP3 SWAP2 POP POP JUMP JUMPDEST PUSH2 0x3E2 DUP2 PUSH2 0x2EB JUMP JUMPDEST DUP2 EQ PUSH2 0x3ED JUMPI PUSH1 0x0 DUP1 REVERT JUMPDEST POP JUMP JUMPDEST PUSH1 0x0 DUP2 CALLDATALOAD SWAP1 POP PUSH2 0x3FF DUP2 PUSH2 0x3D9 JUMP JUMPDEST SWAP3 SWAP2 POP POP JUMP JUMPDEST PUSH1 0x0 DUP1 PUSH1 0x0 PUSH1 0x60 DUP5 DUP7 SUB SLT ISZERO PUSH2 0x41E JUMPI PUSH2 0x41D PUSH2 0x270 JUMP JUMPDEST JUMPDEST PUSH1 0x0 PUSH2 0x42C DUP7 DUP3 DUP8 ADD PUSH2 0x296 JUMP JUMPDEST SWAP4 POP POP PUSH1 0x20 PUSH2 0x43D DUP7 DUP3 DUP8 ADD PUSH2 0x296 JUMP JUMPDEST SWAP3 POP POP PUSH1 0x40 PUSH2 0x44E DUP7 DUP3 DUP8 ADD PUSH2 0x3F0 JUMP JUMPDEST SWAP2 POP POP SWAP3 POP SWAP3 POP SWAP3 JUMP INVALID LOG2 PUSH5 0x6970667358 0x22 SLT KECCAK256 0xF PUSH22 0xFE4084E639BDDE251FFB28D87BC1D4CE2C2DAF42EE7C DUP4 0xD6 LOG0 MUL 0xB2 0xE1 GASPRICE PUSH24 0x64736F6C634300080F003300000000000000000000000000 "
				},
				"gasEstimates": {
					"creation": {
						"codeDepositCost": "233200",
						"executionCost": "275",
						"totalCost": "233475"
					},
					"external": {
						"MyMapping(uint256)": "2796",
						"myAddressMapping(address)": "2911",
						"setMyAddressToTrue()": "24544",
						"setUintUintBoolMapping(uint256,uint256,bool)": "infinite",
						"setValue(uint256)": "24773",
						"uintuintBoolMapping(uint256,uint256)": "infinite"
					}
				},
				"methodIdentifiers": {
					"MyMapping(uint256)": "3d7d5c61",
					"myAddressMapping(address)": "b92ba3b8",
					"setMyAddressToTrue()": "634899ce",
					"setUintUintBoolMapping(uint256,uint256,bool)": "bc65030e",
					"setValue(uint256)": "55241077",
					"uintuintBoolMapping(uint256,uint256)": "26cce8e4"
				}
			},
			"storageLayout": {
				"storage": [
					{
						"astId": 5,
						"contract": "Ethereum Course/Data Structures/mapping.sol:ExampleMapping",
						"label": "MyMapping",
						"offset": 0,
						"slot": "0",
						"type": "t_mapping(t_uint256,t_bool)"
					},
					{
						"astId": 9,
						"contract": "Ethereum Course/Data Structures/mapping.sol:ExampleMapping",
						"label": "myAddressMapping",
						"offset": 0,
						"slot": "1",
						"type": "t_mapping(t_address,t_bool)"
					},
					{
						"astId": 15,
						"contract": "Ethereum Course/Data Structures/mapping.sol:ExampleMapping",
						"label": "uintuintBoolMapping",
						"offset": 0,
						"slot": "2",
						"type": "t_mapping(t_uint256,t_mapping(t_uint256,t_bool))"
					}
				],
				"types": {
					"t_address": {
						"encoding": "inplace",
						"label": "address",
						"numberOfBytes": "20"
					},
					"t_bool": {
						"encoding": "inplace",
						"label": "bool",
						"numberOfBytes": "1"
					},
					"t_mapping(t_address,t_bool)": {
						"encoding": "mapping",
						"key": "t_address",
						"label": "mapping(address => bool)",
						"numberOfBytes": "32",
						"value": "t_bool"
					},
					"t_mapping(t_uint256,t_bool)": {
						"encoding": "mapping",
						"key": "t_uint256",
						"label": "mapping(uint256 => bool)",
						"numberOfBytes": "32",
						"value": "t_bool"
					},
					"t_mapping(t_uint256,t_mapping(t_uint256,t_bool))": {
						"encoding": "mapping",
						"key": "t_uint256",
						"label": "mapping(uint256 => mapping(uint256 => bool))",
						"numberOfBytes": "32",
						"value": "t_mapping(t_uint256,t_bool)"
					},
					"t_uint256": {
						"encoding": "inplace",
						"label": "uint256",
						"numberOfBytes": "32"
					}
				}
			},
			"userdoc": {
				"kind": "user",
				"methods": {},
				"version": 1
			}
		}
	}
}