{
	"Ethereum Course/Basics/function_types.sol": {
		"FunctionTypes": {
			"abi": [
				{
					"inputs": [
						{
							"internalType": "uint256",
							"name": "a",
							"type": "uint256"
						},
						{
							"internalType": "uint256",
							"name": "b",
							"type": "uint256"
						}
					],
					"name": "getAddition",
					"outputs": [
						{
							"internalType": "uint256",
							"name": "",
							"type": "uint256"
						}
					],
					"stateMutability": "pure",
					"type": "function"
				},
				{
					"inputs": [],
					"name": "getStorageVariable",
					"outputs": [
						{
							"internalType": "uint256",
							"name": "",
							"type": "uint256"
						}
					],
					"stateMutability": "view",
					"type": "function"
				},
				{
					"inputs": [
						{
							"internalType": "uint256",
							"name": "_newValue",
							"type": "uint256"
						}
					],
					"name": "setMyStorageVariable",
					"outputs": [],
					"stateMutability": "nonpayable",
					"type": "function"
				}
			],
			"devdoc": {
				"kind": "dev",
				"methods": {},
				"version": 1
			},
			"evm": {
				"assembly": "    /* \"Ethereum Course/Basics/function_types.sol\":60:432  contract FunctionTypes{... */\n  mstore(0x40, 0x80)\n  callvalue\n  dup1\n  iszero\n  tag_1\n  jumpi\n  0x00\n  dup1\n  revert\ntag_1:\n  pop\n  dataSize(sub_0)\n  dup1\n  dataOffset(sub_0)\n  0x00\n  codecopy\n  0x00\n  return\nstop\n\nsub_0: assembly {\n        /* \"Ethereum Course/Basics/function_types.sol\":60:432  contract FunctionTypes{... */\n      mstore(0x40, 0x80)\n      callvalue\n      dup1\n      iszero\n      tag_1\n      jumpi\n      0x00\n      dup1\n      revert\n    tag_1:\n      pop\n      jumpi(tag_2, lt(calldatasize, 0x04))\n      shr(0xe0, calldataload(0x00))\n      dup1\n      0x08b9e850\n      eq\n      tag_3\n      jumpi\n      dup1\n      0x9e186277\n      eq\n      tag_4\n      jumpi\n      dup1\n      0xe48d59d9\n      eq\n      tag_5\n      jumpi\n    tag_2:\n      0x00\n      dup1\n      revert\n        /* \"Ethereum Course/Basics/function_types.sol\":226:320  function getAddition(uint a, uint b) public pure returns(uint) {... */\n    tag_3:\n      tag_6\n      0x04\n      dup1\n      calldatasize\n      sub\n      dup2\n      add\n      swap1\n      tag_7\n      swap2\n      swap1\n      tag_8\n      jump\t// in\n    tag_7:\n      tag_9\n      jump\t// in\n    tag_6:\n      mload(0x40)\n      tag_10\n      swap2\n      swap1\n      tag_11\n      jump\t// in\n    tag_10:\n      mload(0x40)\n      dup1\n      swap2\n      sub\n      swap1\n      return\n        /* \"Ethereum Course/Basics/function_types.sol\":120:218  function getStorageVariable() public view returns(uint){... */\n    tag_4:\n      tag_12\n      tag_13\n      jump\t// in\n    tag_12:\n      mload(0x40)\n      tag_14\n      swap2\n      swap1\n      tag_11\n      jump\t// in\n    tag_14:\n      mload(0x40)\n      dup1\n      swap2\n      sub\n      swap1\n      return\n        /* \"Ethereum Course/Basics/function_types.sol\":328:429  function setMyStorageVariable(uint _newValue) public {... */\n    tag_5:\n      tag_15\n      0x04\n      dup1\n      calldatasize\n      sub\n      dup2\n      add\n      swap1\n      tag_16\n      swap2\n      swap1\n      tag_17\n      jump\t// in\n    tag_16:\n      tag_18\n      jump\t// in\n    tag_15:\n      stop\n        /* \"Ethereum Course/Basics/function_types.sol\":226:320  function getAddition(uint a, uint b) public pure returns(uint) {... */\n    tag_9:\n        /* \"Ethereum Course/Basics/function_types.sol\":283:287  uint */\n      0x00\n        /* \"Ethereum Course/Basics/function_types.sol\":311:312  b */\n      dup2\n        /* \"Ethereum Course/Basics/function_types.sol\":307:308  a */\n      dup4\n        /* \"Ethereum Course/Basics/function_types.sol\":307:312  a + b */\n      tag_20\n      swap2\n      swap1\n      tag_21\n      jump\t// in\n    tag_20:\n        /* \"Ethereum Course/Basics/function_types.sol\":300:312  return a + b */\n      swap1\n      pop\n        /* \"Ethereum Course/Basics/function_types.sol\":226:320  function getAddition(uint a, uint b) public pure returns(uint) {... */\n      swap3\n      swap2\n      pop\n      pop\n      jump\t// out\n        /* \"Ethereum Course/Basics/function_types.sol\":120:218  function getStorageVariable() public view returns(uint){... */\n    tag_13:\n        /* \"Ethereum Course/Basics/function_types.sol\":170:174  uint */\n      0x00\n        /* \"Ethereum Course/Basics/function_types.sol\":193:210  myStorageVariable */\n      dup1\n      sload\n        /* \"Ethereum Course/Basics/function_types.sol\":186:210  return myStorageVariable */\n      swap1\n      pop\n        /* \"Ethereum Course/Basics/function_types.sol\":120:218  function getStorageVariable() public view returns(uint){... */\n      swap1\n      jump\t// out\n        /* \"Ethereum Course/Basics/function_types.sol\":328:429  function setMyStorageVariable(uint _newValue) public {... */\n    tag_18:\n        /* \"Ethereum Course/Basics/function_types.sol\":412:421  _newValue */\n      dup1\n        /* \"Ethereum Course/Basics/function_types.sol\":392:409  myStorageVariable */\n      0x00\n        /* \"Ethereum Course/Basics/function_types.sol\":392:421  myStorageVariable = _newValue */\n      dup2\n      swap1\n      sstore\n      pop\n        /* \"Ethereum Course/Basics/function_types.sol\":328:429  function setMyStorageVariable(uint _newValue) public {... */\n      pop\n      jump\t// out\n        /* \"#utility.yul\":88:205   */\n    tag_25:\n        /* \"#utility.yul\":197:198   */\n      0x00\n        /* \"#utility.yul\":194:195   */\n      dup1\n        /* \"#utility.yul\":187:199   */\n      revert\n        /* \"#utility.yul\":334:411   */\n    tag_27:\n        /* \"#utility.yul\":371:378   */\n      0x00\n        /* \"#utility.yul\":400:405   */\n      dup2\n        /* \"#utility.yul\":389:405   */\n      swap1\n      pop\n        /* \"#utility.yul\":334:411   */\n      swap2\n      swap1\n      pop\n      jump\t// out\n        /* \"#utility.yul\":417:539   */\n    tag_28:\n        /* \"#utility.yul\":490:514   */\n      tag_38\n        /* \"#utility.yul\":508:513   */\n      dup2\n        /* \"#utility.yul\":490:514   */\n      tag_27\n      jump\t// in\n    tag_38:\n        /* \"#utility.yul\":483:488   */\n      dup2\n        /* \"#utility.yul\":480:515   */\n      eq\n        /* \"#utility.yul\":470:533   */\n      tag_39\n      jumpi\n        /* \"#utility.yul\":529:530   */\n      0x00\n        /* \"#utility.yul\":526:527   */\n      dup1\n        /* \"#utility.yul\":519:531   */\n      revert\n        /* \"#utility.yul\":470:533   */\n    tag_39:\n        /* \"#utility.yul\":417:539   */\n      pop\n      jump\t// out\n        /* \"#utility.yul\":545:684   */\n    tag_29:\n        /* \"#utility.yul\":591:596   */\n      0x00\n        /* \"#utility.yul\":629:635   */\n      dup2\n        /* \"#utility.yul\":616:636   */\n      calldataload\n        /* \"#utility.yul\":607:636   */\n      swap1\n      pop\n        /* \"#utility.yul\":645:678   */\n      tag_41\n        /* \"#utility.yul\":672:677   */\n      dup2\n        /* \"#utility.yul\":645:678   */\n      tag_28\n      jump\t// in\n    tag_41:\n        /* \"#utility.yul\":545:684   */\n      swap3\n      swap2\n      pop\n      pop\n      jump\t// out\n        /* \"#utility.yul\":690:1164   */\n    tag_8:\n        /* \"#utility.yul\":758:764   */\n      0x00\n        /* \"#utility.yul\":766:772   */\n      dup1\n        /* \"#utility.yul\":815:817   */\n      0x40\n        /* \"#utility.yul\":803:812   */\n      dup4\n        /* \"#utility.yul\":794:801   */\n      dup6\n        /* \"#utility.yul\":790:813   */\n      sub\n        /* \"#utility.yul\":786:818   */\n      slt\n        /* \"#utility.yul\":783:902   */\n      iszero\n      tag_43\n      jumpi\n        /* \"#utility.yul\":821:900   */\n      tag_44\n      tag_25\n      jump\t// in\n    tag_44:\n        /* \"#utility.yul\":783:902   */\n    tag_43:\n        /* \"#utility.yul\":941:942   */\n      0x00\n        /* \"#utility.yul\":966:1019   */\n      tag_45\n        /* \"#utility.yul\":1011:1018   */\n      dup6\n        /* \"#utility.yul\":1002:1008   */\n      dup3\n        /* \"#utility.yul\":991:1000   */\n      dup7\n        /* \"#utility.yul\":987:1009   */\n      add\n        /* \"#utility.yul\":966:1019   */\n      tag_29\n      jump\t// in\n    tag_45:\n        /* \"#utility.yul\":956:1019   */\n      swap3\n      pop\n        /* \"#utility.yul\":912:1029   */\n      pop\n        /* \"#utility.yul\":1068:1070   */\n      0x20\n        /* \"#utility.yul\":1094:1147   */\n      tag_46\n        /* \"#utility.yul\":1139:1146   */\n      dup6\n        /* \"#utility.yul\":1130:1136   */\n      dup3\n        /* \"#utility.yul\":1119:1128   */\n      dup7\n        /* \"#utility.yul\":1115:1137   */\n      add\n        /* \"#utility.yul\":1094:1147   */\n      tag_29\n      jump\t// in\n    tag_46:\n        /* \"#utility.yul\":1084:1147   */\n      swap2\n      pop\n        /* \"#utility.yul\":1039:1157   */\n      pop\n        /* \"#utility.yul\":690:1164   */\n      swap3\n      pop\n      swap3\n      swap1\n      pop\n      jump\t// out\n        /* \"#utility.yul\":1170:1288   */\n    tag_30:\n        /* \"#utility.yul\":1257:1281   */\n      tag_48\n        /* \"#utility.yul\":1275:1280   */\n      dup2\n        /* \"#utility.yul\":1257:1281   */\n      tag_27\n      jump\t// in\n    tag_48:\n        /* \"#utility.yul\":1252:1255   */\n      dup3\n        /* \"#utility.yul\":1245:1282   */\n      mstore\n        /* \"#utility.yul\":1170:1288   */\n      pop\n      pop\n      jump\t// out\n        /* \"#utility.yul\":1294:1516   */\n    tag_11:\n        /* \"#utility.yul\":1387:1391   */\n      0x00\n        /* \"#utility.yul\":1425:1427   */\n      0x20\n        /* \"#utility.yul\":1414:1423   */\n      dup3\n        /* \"#utility.yul\":1410:1428   */\n      add\n        /* \"#utility.yul\":1402:1428   */\n      swap1\n      pop\n        /* \"#utility.yul\":1438:1509   */\n      tag_50\n        /* \"#utility.yul\":1506:1507   */\n      0x00\n        /* \"#utility.yul\":1495:1504   */\n      dup4\n        /* \"#utility.yul\":1491:1508   */\n      add\n        /* \"#utility.yul\":1482:1488   */\n      dup5\n        /* \"#utility.yul\":1438:1509   */\n      tag_30\n      jump\t// in\n    tag_50:\n        /* \"#utility.yul\":1294:1516   */\n      swap3\n      swap2\n      pop\n      pop\n      jump\t// out\n        /* \"#utility.yul\":1522:1851   */\n    tag_17:\n        /* \"#utility.yul\":1581:1587   */\n      0x00\n        /* \"#utility.yul\":1630:1632   */\n      0x20\n        /* \"#utility.yul\":1618:1627   */\n      dup3\n        /* \"#utility.yul\":1609:1616   */\n      dup5\n        /* \"#utility.yul\":1605:1628   */\n      sub\n        /* \"#utility.yul\":1601:1633   */\n      slt\n        /* \"#utility.yul\":1598:1717   */\n      iszero\n      tag_52\n      jumpi\n        /* \"#utility.yul\":1636:1715   */\n      tag_53\n      tag_25\n      jump\t// in\n    tag_53:\n        /* \"#utility.yul\":1598:1717   */\n    tag_52:\n        /* \"#utility.yul\":1756:1757   */\n      0x00\n        /* \"#utility.yul\":1781:1834   */\n      tag_54\n        /* \"#utility.yul\":1826:1833   */\n      dup5\n        /* \"#utility.yul\":1817:1823   */\n      dup3\n        /* \"#utility.yul\":1806:1815   */\n      dup6\n        /* \"#utility.yul\":1802:1824   */\n      add\n        /* \"#utility.yul\":1781:1834   */\n      tag_29\n      jump\t// in\n    tag_54:\n        /* \"#utility.yul\":1771:1834   */\n      swap2\n      pop\n        /* \"#utility.yul\":1727:1844   */\n      pop\n        /* \"#utility.yul\":1522:1851   */\n      swap3\n      swap2\n      pop\n      pop\n      jump\t// out\n        /* \"#utility.yul\":1857:2037   */\n    tag_31:\n        /* \"#utility.yul\":1905:1982   */\n      0x4e487b7100000000000000000000000000000000000000000000000000000000\n        /* \"#utility.yul\":1902:1903   */\n      0x00\n        /* \"#utility.yul\":1895:1983   */\n      mstore\n        /* \"#utility.yul\":2002:2006   */\n      0x11\n        /* \"#utility.yul\":1999:2000   */\n      0x04\n        /* \"#utility.yul\":1992:2007   */\n      mstore\n        /* \"#utility.yul\":2026:2030   */\n      0x24\n        /* \"#utility.yul\":2023:2024   */\n      0x00\n        /* \"#utility.yul\":2016:2031   */\n      revert\n        /* \"#utility.yul\":2043:2348   */\n    tag_21:\n        /* \"#utility.yul\":2083:2086   */\n      0x00\n        /* \"#utility.yul\":2102:2122   */\n      tag_57\n        /* \"#utility.yul\":2120:2121   */\n      dup3\n        /* \"#utility.yul\":2102:2122   */\n      tag_27\n      jump\t// in\n    tag_57:\n        /* \"#utility.yul\":2097:2122   */\n      swap2\n      pop\n        /* \"#utility.yul\":2136:2156   */\n      tag_58\n        /* \"#utility.yul\":2154:2155   */\n      dup4\n        /* \"#utility.yul\":2136:2156   */\n      tag_27\n      jump\t// in\n    tag_58:\n        /* \"#utility.yul\":2131:2156   */\n      swap3\n      pop\n        /* \"#utility.yul\":2290:2291   */\n      dup3\n        /* \"#utility.yul\":2222:2288   */\n      0xffffffffffffffffffffffffffffffffffffffffffffffffffffffffffffffff\n        /* \"#utility.yul\":2218:2292   */\n      sub\n        /* \"#utility.yul\":2215:2216   */\n      dup3\n        /* \"#utility.yul\":2212:2293   */\n      gt\n        /* \"#utility.yul\":2209:2316   */\n      iszero\n      tag_59\n      jumpi\n        /* \"#utility.yul\":2296:2314   */\n      tag_60\n      tag_31\n      jump\t// in\n    tag_60:\n        /* \"#utility.yul\":2209:2316   */\n    tag_59:\n        /* \"#utility.yul\":2340:2341   */\n      dup3\n        /* \"#utility.yul\":2337:2338   */\n      dup3\n        /* \"#utility.yul\":2333:2342   */\n      add\n        /* \"#utility.yul\":2326:2342   */\n      swap1\n      pop\n        /* \"#utility.yul\":2043:2348   */\n      swap3\n      swap2\n      pop\n      pop\n      jump\t// out\n\n    auxdata: 0xa26469706673582212207e437061347273c5365f484db1ed318ff50fdf2885000d7d116ced44fae6c4b064736f6c634300080f0033\n}\n",
				"bytecode": {
					"linkReferences": {},
					"object": "608060405234801561001057600080fd5b50610266806100206000396000f3fe608060405234801561001057600080fd5b50600436106100415760003560e01c806308b9e850146100465780639e18627714610076578063e48d59d914610094575b600080fd5b610060600480360381019061005b9190610114565b6100b0565b60405161006d9190610163565b60405180910390f35b61007e6100c6565b60405161008b9190610163565b60405180910390f35b6100ae60048036038101906100a9919061017e565b6100cf565b005b600081836100be91906101da565b905092915050565b60008054905090565b8060008190555050565b600080fd5b6000819050919050565b6100f1816100de565b81146100fc57600080fd5b50565b60008135905061010e816100e8565b92915050565b6000806040838503121561012b5761012a6100d9565b5b6000610139858286016100ff565b925050602061014a858286016100ff565b9150509250929050565b61015d816100de565b82525050565b60006020820190506101786000830184610154565b92915050565b600060208284031215610194576101936100d9565b5b60006101a2848285016100ff565b91505092915050565b7f4e487b7100000000000000000000000000000000000000000000000000000000600052601160045260246000fd5b60006101e5826100de565b91506101f0836100de565b9250827fffffffffffffffffffffffffffffffffffffffffffffffffffffffffffffffff03821115610225576102246101ab565b5b82820190509291505056fea26469706673582212207e437061347273c5365f484db1ed318ff50fdf2885000d7d116ced44fae6c4b064736f6c634300080f0033",
					"opcodes": "PUSH1 0x80 PUSH1 0x40 MSTORE CALLVALUE DUP1 ISZERO PUSH2 0x10 JUMPI PUSH1 0x0 DUP1 REVERT JUMPDEST POP PUSH2 0x266 DUP1 PUSH2 0x20 PUSH1 0x0 CODECOPY PUSH1 0x0 RETURN INVALID PUSH1 0x80 PUSH1 0x40 MSTORE CALLVALUE DUP1 ISZERO PUSH2 0x10 JUMPI PUSH1 0x0 DUP1 REVERT JUMPDEST POP PUSH1 0x4 CALLDATASIZE LT PUSH2 0x41 JUMPI PUSH1 0x0 CALLDATALOAD PUSH1 0xE0 SHR DUP1 PUSH4 0x8B9E850 EQ PUSH2 0x46 JUMPI DUP1 PUSH4 0x9E186277 EQ PUSH2 0x76 JUMPI DUP1 PUSH4 0xE48D59D9 EQ PUSH2 0x94 JUMPI JUMPDEST PUSH1 0x0 DUP1 REVERT JUMPDEST PUSH2 0x60 PUSH1 0x4 DUP1 CALLDATASIZE SUB DUP2 ADD SWAP1 PUSH2 0x5B SWAP2 SWAP1 PUSH2 0x114 JUMP JUMPDEST PUSH2 0xB0 JUMP JUMPDEST PUSH1 0x40 MLOAD PUSH2 0x6D SWAP2 SWAP1 PUSH2 0x163 JUMP JUMPDEST PUSH1 0x40 MLOAD DUP1 SWAP2 SUB SWAP1 RETURN JUMPDEST PUSH2 0x7E PUSH2 0xC6 JUMP JUMPDEST PUSH1 0x40 MLOAD PUSH2 0x8B SWAP2 SWAP1 PUSH2 0x163 JUMP JUMPDEST PUSH1 0x40 MLOAD DUP1 SWAP2 SUB SWAP1 RETURN JUMPDEST PUSH2 0xAE PUSH1 0x4 DUP1 CALLDATASIZE SUB DUP2 ADD SWAP1 PUSH2 0xA9 SWAP2 SWAP1 PUSH2 0x17E JUMP JUMPDEST PUSH2 0xCF JUMP JUMPDEST STOP JUMPDEST PUSH1 0x0 DUP2 DUP4 PUSH2 0xBE SWAP2 SWAP1 PUSH2 0x1DA JUMP JUMPDEST SWAP1 POP SWAP3 SWAP2 POP POP JUMP JUMPDEST PUSH1 0x0 DUP1 SLOAD SWAP1 POP SWAP1 JUMP JUMPDEST DUP1 PUSH1 0x0 DUP2 SWAP1 SSTORE POP POP JUMP JUMPDEST PUSH1 0x0 DUP1 REVERT JUMPDEST PUSH1 0x0 DUP2 SWAP1 POP SWAP2 SWAP1 POP JUMP JUMPDEST PUSH2 0xF1 DUP2 PUSH2 0xDE JUMP JUMPDEST DUP2 EQ PUSH2 0xFC JUMPI PUSH1 0x0 DUP1 REVERT JUMPDEST POP JUMP JUMPDEST PUSH1 0x0 DUP2 CALLDATALOAD SWAP1 POP PUSH2 0x10E DUP2 PUSH2 0xE8 JUMP JUMPDEST SWAP3 SWAP2 POP POP JUMP JUMPDEST PUSH1 0x0 DUP1 PUSH1 0x40 DUP4 DUP6 SUB SLT ISZERO PUSH2 0x12B JUMPI PUSH2 0x12A PUSH2 0xD9 JUMP JUMPDEST JUMPDEST PUSH1 0x0 PUSH2 0x139 DUP6 DUP3 DUP7 ADD PUSH2 0xFF JUMP JUMPDEST SWAP3 POP POP PUSH1 0x20 PUSH2 0x14A DUP6 DUP3 DUP7 ADD PUSH2 0xFF JUMP JUMPDEST SWAP2 POP POP SWAP3 POP SWAP3 SWAP1 POP JUMP JUMPDEST PUSH2 0x15D DUP2 PUSH2 0xDE JUMP JUMPDEST DUP3 MSTORE POP POP JUMP JUMPDEST PUSH1 0x0 PUSH1 0x20 DUP3 ADD SWAP1 POP PUSH2 0x178 PUSH1 0x0 DUP4 ADD DUP5 PUSH2 0x154 JUMP JUMPDEST SWAP3 SWAP2 POP POP JUMP JUMPDEST PUSH1 0x0 PUSH1 0x20 DUP3 DUP5 SUB SLT ISZERO PUSH2 0x194 JUMPI PUSH2 0x193 PUSH2 0xD9 JUMP JUMPDEST JUMPDEST PUSH1 0x0 PUSH2 0x1A2 DUP5 DUP3 DUP6 ADD PUSH2 0xFF JUMP JUMPDEST SWAP2 POP POP SWAP3 SWAP2 POP POP JUMP JUMPDEST PUSH32 0x4E487B7100000000000000000000000000000000000000000000000000000000 PUSH1 0x0 MSTORE PUSH1 0x11 PUSH1 0x4 MSTORE PUSH1 0x24 PUSH1 0x0 REVERT JUMPDEST PUSH1 0x0 PUSH2 0x1E5 DUP3 PUSH2 0xDE JUMP JUMPDEST SWAP2 POP PUSH2 0x1F0 DUP4 PUSH2 0xDE JUMP JUMPDEST SWAP3 POP DUP3 PUSH32 0xFFFFFFFFFFFFFFFFFFFFFFFFFFFFFFFFFFFFFFFFFFFFFFFFFFFFFFFFFFFFFFFF SUB DUP3 GT ISZERO PUSH2 0x225 JUMPI PUSH2 0x224 PUSH2 0x1AB JUMP JUMPDEST JUMPDEST DUP3 DUP3 ADD SWAP1 POP SWAP3 SWAP2 POP POP JUMP INVALID LOG2 PUSH5 0x6970667358 0x22 SLT KECCAK256 PUSH31 0x437061347273C5365F484DB1ED318FF50FDF2885000D7D116CED44FAE6C4B0 PUSH5 0x736F6C6343 STOP ADDMOD 0xF STOP CALLER "
				},
				"gasEstimates": {
					"creation": {
						"codeDepositCost": "122800",
						"executionCost": "171",
						"totalCost": "122971"
					},
					"external": {
						"getAddition(uint256,uint256)": "infinite",
						"getStorageVariable()": "2437",
						"setMyStorageVariable(uint256)": "22542"
					}
				},
				"methodIdentifiers": {
					"getAddition(uint256,uint256)": "08b9e850",
					"getStorageVariable()": "9e186277",
					"setMyStorageVariable(uint256)": "e48d59d9"
				}
			},
			"storageLayout": {
				"storage": [
					{
						"astId": 3,
						"contract": "Ethereum Course/Basics/function_types.sol:FunctionTypes",
						"label": "myStorageVariable",
						"offset": 0,
						"slot": "0",
						"type": "t_uint256"
					}
				],
				"types": {
					"t_uint256": {
						"encoding": "inplace",
						"label": "uint256",
						"numberOfBytes": "32"
					}
				}
			},
			"userdoc": {
				"kind": "user",
				"methods": {},
				"version": 1
			}
		}
	}
}